{
  "contractName": "Coruscant",
  "abi": [
    {
      "inputs": [],
      "name": "name",
      "outputs": [
        {
          "internalType": "string",
          "name": "",
          "type": "string"
        }
      ],
      "stateMutability": "view",
      "type": "function",
      "constant": true
    },
    {
      "inputs": [],
      "name": "symbol",
      "outputs": [
        {
          "internalType": "string",
          "name": "",
          "type": "string"
        }
      ],
      "stateMutability": "view",
      "type": "function",
      "constant": true
    },
    {
      "inputs": [],
      "name": "totalSupply",
      "outputs": [
        {
          "internalType": "uint256",
          "name": "",
          "type": "uint256"
        }
      ],
      "stateMutability": "view",
      "type": "function",
      "constant": true
    },
    {
      "inputs": [
        {
          "internalType": "address",
          "name": "owner",
          "type": "address"
        }
      ],
      "name": "balanceOf",
      "outputs": [
        {
          "internalType": "uint256",
          "name": "",
          "type": "uint256"
        }
      ],
      "stateMutability": "view",
      "type": "function",
      "constant": true
    },
    {
      "inputs": [
        {
          "internalType": "uint256",
          "name": "tokenId",
          "type": "uint256"
        }
      ],
      "name": "ownerOf",
      "outputs": [
        {
          "internalType": "address",
          "name": "",
          "type": "address"
        }
      ],
      "stateMutability": "view",
      "type": "function",
      "constant": true
    },
    {
      "inputs": [
        {
          "internalType": "address",
          "name": "to",
          "type": "address"
        },
        {
          "internalType": "uint256",
          "name": "tokenId",
          "type": "uint256"
        }
      ],
      "name": "mint",
      "outputs": [],
      "stateMutability": "nonpayable",
      "type": "function"
    }
  ],
  "bytecode": "0x60806040526040518060400160405280600981526020017f436f72757363616e740000000000000000000000000000000000000000000000815250600090816200004a919062000328565b506040518060400160405280600481526020017f4352534e000000000000000000000000000000000000000000000000000000008152506001908162000091919062000328565b506305f5e100600255348015620000a757600080fd5b506200040f565b600081519050919050565b7f4e487b7100000000000000000000000000000000000000000000000000000000600052604160045260246000fd5b7f4e487b7100000000000000000000000000000000000000000000000000000000600052602260045260246000fd5b600060028204905060018216806200013057607f821691505b602082108103620001465762000145620000e8565b5b50919050565b60008190508160005260206000209050919050565b60006020601f8301049050919050565b600082821b905092915050565b600060088302620001b07fffffffffffffffffffffffffffffffffffffffffffffffffffffffffffffffff8262000171565b620001bc868362000171565b95508019841693508086168417925050509392505050565b6000819050919050565b6000819050919050565b60006200020962000203620001fd84620001d4565b620001de565b620001d4565b9050919050565b6000819050919050565b6200022583620001e8565b6200023d620002348262000210565b8484546200017e565b825550505050565b600090565b6200025462000245565b620002618184846200021a565b505050565b5b8181101562000289576200027d6000826200024a565b60018101905062000267565b5050565b601f821115620002d857620002a2816200014c565b620002ad8462000161565b81016020851015620002bd578190505b620002d5620002cc8562000161565b83018262000266565b50505b505050565b600082821c905092915050565b6000620002fd60001984600802620002dd565b1980831691505092915050565b6000620003188383620002ea565b9150826002028217905092915050565b6200033382620000ae565b67ffffffffffffffff8111156200034f576200034e620000b9565b5b6200035b825462000117565b620003688282856200028d565b600060209050601f831160018114620003a057600084156200038b578287015190505b6200039785826200030a565b86555062000407565b601f198416620003b0866200014c565b60005b82811015620003da57848901518255600182019150602085019450602081019050620003b3565b86831015620003fa5784890151620003f6601f891682620002ea565b8355505b6001600288020188555050505b505050505050565b610a87806200041f6000396000f3fe608060405234801561001057600080fd5b50600436106100625760003560e01c806306fdde031461006757806318160ddd1461008557806340c10f19146100a35780636352211e146100bf57806370a08231146100ef57806395d89b411461011f575b600080fd5b61006f61013d565b60405161007c919061060f565b60405180910390f35b61008d6101cb565b60405161009a919061064a565b60405180910390f35b6100bd60048036038101906100b891906106f4565b6101d1565b005b6100d960048036038101906100d49190610734565b610336565b6040516100e69190610770565b60405180910390f35b6101096004803603810190610104919061078b565b6103bc565b604051610116919061064a565b60405180910390f35b610127610473565b604051610134919061060f565b60405180910390f35b6000805461014a906107e7565b80601f0160208091040260200160405190810160405280929190818152602001828054610176906107e7565b80156101c35780601f10610198576101008083540402835291602001916101c3565b820191906000526020600020905b8154815290600101906020018083116101a657829003601f168201915b505050505081565b60025481565b600073ffffffffffffffffffffffffffffffffffffffff168273ffffffffffffffffffffffffffffffffffffffff1603610240576040517f08c379a000000000000000000000000000000000000000000000000000000000815260040161023790610864565b60405180910390fd5b61024981610501565b15610289576040517f08c379a0000000000000000000000000000000000000000000000000000000008152600401610280906108d0565b60405180910390fd5b6001600360008473ffffffffffffffffffffffffffffffffffffffff1673ffffffffffffffffffffffffffffffffffffffff16815260200190815260200160002060008282546102d9919061091f565b92505081905550816004600083815260200190815260200160002060006101000a81548173ffffffffffffffffffffffffffffffffffffffff021916908373ffffffffffffffffffffffffffffffffffffffff1602179055505050565b60008061034283610542565b9050600073ffffffffffffffffffffffffffffffffffffffff168173ffffffffffffffffffffffffffffffffffffffff16036103b3576040517f08c379a00000000000000000000000000000000000000000000000000000000081526004016103aa9061099f565b60405180910390fd5b80915050919050565b60008073ffffffffffffffffffffffffffffffffffffffff168273ffffffffffffffffffffffffffffffffffffffff160361042c576040517f08c379a000000000000000000000000000000000000000000000000000000000815260040161042390610a31565b60405180910390fd5b600360008373ffffffffffffffffffffffffffffffffffffffff1673ffffffffffffffffffffffffffffffffffffffff168152602001908152602001600020549050919050565b60018054610480906107e7565b80601f01602080910402602001604051908101604052809291908181526020018280546104ac906107e7565b80156104f95780601f106104ce576101008083540402835291602001916104f9565b820191906000526020600020905b8154815290600101906020018083116104dc57829003601f168201915b505050505081565b60008073ffffffffffffffffffffffffffffffffffffffff1661052383610542565b73ffffffffffffffffffffffffffffffffffffffff1614159050919050565b60006004600083815260200190815260200160002060009054906101000a900473ffffffffffffffffffffffffffffffffffffffff169050919050565b600081519050919050565b600082825260208201905092915050565b60005b838110156105b957808201518184015260208101905061059e565b60008484015250505050565b6000601f19601f8301169050919050565b60006105e18261057f565b6105eb818561058a565b93506105fb81856020860161059b565b610604816105c5565b840191505092915050565b6000602082019050818103600083015261062981846105d6565b905092915050565b6000819050919050565b61064481610631565b82525050565b600060208201905061065f600083018461063b565b92915050565b600080fd5b600073ffffffffffffffffffffffffffffffffffffffff82169050919050565b60006106958261066a565b9050919050565b6106a58161068a565b81146106b057600080fd5b50565b6000813590506106c28161069c565b92915050565b6106d181610631565b81146106dc57600080fd5b50565b6000813590506106ee816106c8565b92915050565b6000806040838503121561070b5761070a610665565b5b6000610719858286016106b3565b925050602061072a858286016106df565b9150509250929050565b60006020828403121561074a57610749610665565b5b6000610758848285016106df565b91505092915050565b61076a8161068a565b82525050565b60006020820190506107856000830184610761565b92915050565b6000602082840312156107a1576107a0610665565b5b60006107af848285016106b3565b91505092915050565b7f4e487b7100000000000000000000000000000000000000000000000000000000600052602260045260246000fd5b600060028204905060018216806107ff57607f821691505b602082108103610812576108116107b8565b5b50919050565b7f4552433732313a206d696e7420746f20746865207a65726f2061646472657373600082015250565b600061084e60208361058a565b915061085982610818565b602082019050919050565b6000602082019050818103600083015261087d81610841565b9050919050565b7f4552433732313a20746f6b656e20616c7265616479206d696e74656400000000600082015250565b60006108ba601c8361058a565b91506108c582610884565b602082019050919050565b600060208201905081810360008301526108e9816108ad565b9050919050565b7f4e487b7100000000000000000000000000000000000000000000000000000000600052601160045260246000fd5b600061092a82610631565b915061093583610631565b925082820190508082111561094d5761094c6108f0565b5b92915050565b7f4552433732313a20696e76616c696420746f6b656e2049440000000000000000600082015250565b600061098960188361058a565b915061099482610953565b602082019050919050565b600060208201905081810360008301526109b88161097c565b9050919050565b7f4552433732313a2061646472657373207a65726f206973206e6f74206120766160008201527f6c6964206f776e65720000000000000000000000000000000000000000000000602082015250565b6000610a1b60298361058a565b9150610a26826109bf565b604082019050919050565b60006020820190508181036000830152610a4a81610a0e565b905091905056fea26469706673582212206686e10041b7cb2301a5d0fd2ad9eea3aa5b39611f1d2412dddded7db139435f64736f6c63430008130033",
  "immutableReferences": {},
  "source": "// SPDX-License-Identifier: MIT\npragma solidity >=0.4.22 <0.9.0;\n\ncontract Coruscant {\n  string public name = \"Coruscant\";\n  string public symbol = \"CRSN\";\n  uint256 public totalSupply = 100000000;\n  \n  // Mapping owner address to token count\n  mapping(address => uint256) private _balances;\n  \n  // Mapping from token ID to owner address\n  mapping(uint256 => address) private _owners;\n\n  function balanceOf(address owner) public view returns (uint256) {\n    require(owner != address(0), \"ERC721: address zero is not a valid owner\");\n    return _balances[owner]; \n  }\n\n  function ownerOf(uint256 tokenId) public view returns (address) {\n    address owner = _ownerOf(tokenId);\n    require(owner != address(0), \"ERC721: invalid token ID\");\n    return owner;\n  }\n\n  function _ownerOf(uint256 tokenId) internal view returns (address) {\n    return _owners[tokenId];\n  }\n\n  function mint(address to, uint256 tokenId) external {\n    require(to != address(0), \"ERC721: mint to the zero address\");\n    require(!_exists(tokenId), \"ERC721: token already minted\");\n\n    _balances[to] += 1;\n\n    _owners[tokenId] = to;\n  }\n\n  function _exists(uint256 tokenId) internal view virtual returns (bool) {\n      return _ownerOf(tokenId) != address(0);\n  }\n\n  \n}\n",
  "sourcePath": "/Users/tonyolendo/polygonzkevm/contracts/Coruscant.sol",
  "compiler": {
    "name": "solc",
    "version": "0.8.19+commit.7dd6d404.Emscripten.clang"
  },
  "schemaVersion": "3.4.13",
  "updatedAt": "2023-03-25T01:22:08.040Z",
  "networkType": "ethereum",
  "devdoc": {
    "kind": "dev",
    "methods": {},
    "version": 1
  },
  "userdoc": {
    "kind": "user",
    "methods": {},
    "version": 1
  }
}